:020000040000FA
:0400000014EF00F009
:0600080002823CED00F055
:100018000280E0CF01F0F29401C0E0FF02901000EE
:1000280037EF00F0000E926E000E896E000E936E90
:10003800000E8A6E000E946E000E8B6E000E956E8A
:10004800000E8C6EE00EF26E000EF16E000EF06E79
:10005800D08EC80ED56E000ED76E000ED66E33EF5A
:1000680000F014EF00F002900292000116EF00F089
:080078000600F294029211004F
:020000040020DA
:08000000FFFFFFFFFFFFFFFF00
:020000040030CA
:0E00000000051F1FFF8385FF0FC00FE00F409C
:00000001FF
